:040000000DEF00F010
:04000800D7EF0EF030
:10001800FF00B3EF0FF0020E4718D8A40CD053EC32
:100028000CF0000E516E800E526E000E576E000ED0
:10003800586E030E476ECCB603D01A6A1A2A01D03E
:100048001A6A1A38F00B511208013351D8A425D076
:10005800CCB003D01A6A1A2A01D01A6AD8901A3674
:10006800D8901A36D8901A345112CABC03D01A6ADA
:100078001A2A01D01A6AD8901A36D8901A3451120E
:10008800CABE03D01A6A1A2A01D01A6AD8901A343A
:100098005112CABA25D0010E24D0CABC03D01A6A9C
:1000A8001A2A01D01A6AD8901A36D8901A36D890D7
:1000B8001A345112CCB003D01A6A1A2A01D01A6A1B
:1000C800D8901A36D8901A345112CABA03D01A6A7C
:1000D8001A2A01D01A6AD8901A345112CAAEDBD73C
:1000E800000E511208012B51D8A442D0CCBA03D02B
:1000F8001A6A1A2A01D01A6A060E1B6ED8901A3686
:100108001B2EFCD71A505212CCAA04D0000E1D6E1A
:10011800000E03D0000E1D6E800E1C6E1C50571270
:10012800CCB803D01A6A1A2A01D01A6A050E1B6EB7
:10013800D8901A361B2EFCD71A505212CCA804D0CD
:10014800000E1F6E000E03D0000E1F6E800E1E6E76
:100158001E505812CBBA03D01A6A1A2A01D01A6A4A
:100168001A38F00B52128ED01A38F00B52122BD1CB
:100178002B05D8A443D0CCBA03D01A6A1A2A01D0C6
:100188001A6A060E1B6ED8901A361B2EFCD71A5008
:100198005212CCAA04D0000E216E000E03D0000E1D
:1001A800216E800E206E20505712CCB803D01A6AE8
:1001B8001A2A01D01A6A050E1B6ED8901A361B2E01
:1001C800FCD71A505212CCA804D0000E236E000E91
:1001D80003D0000E236E800E226E22505812CCA23D
:1001E80004D0000E256E000E03D0000E256E800E82
:1001F800246E24505812CBBA4AD046D0020E2B197E
:10020800D8A447D0CCBA03D01A6A1A2A01D01A6ADD
:10021800060E1B6ED8901A361B2EFCD71A50521297
:10022800CCAA04D0000E276E000E03D0000E276E55
:10023800800E266E26505712CBAA04D0000E296EC7
:10024800000E03D0000E296E800E286E285057121B
:10025800CCB803D01A6A1A2A01D01A6A050E1B6E86
:10026800D8901A361B2EFCD71A505212CCA804D09C
:10027800000E2B6E000E03D0000E2B6E800E2A6E21
:100288002A505812CCB203D01A6A1A2A6DD71A6AA1
:100298006BD7030E2B19D8A44CD0CCBA03D01A6A4A
:1002A8001A2A01D01A6A060E1B6ED8901A361B2E0F
:1002B800FCD71A505212CCAA04D0000E2D6E000E94
:1002C80003D0000E2D6E800E2C6E2C505712CBAA28
:1002D80004D0000E2F6E000E03D0000E2F6E800E7D
:1002E8002E6E2E505712CCB803D01A6A1A2A01D093
:1002F8001A6A050E1B6ED8901A361B2EFCD71A5098
:100308005212CCA804D0000E316E000E03D0000E9D
:10031800316E800E306E30505812CCA204D0000ED0
:10032800336E000E03D0000E336E800E326E3250E4
:1003380049D0040E2B19D8A446D0CCBA03D01A6AD7
:100348001A2A01D01A6A060E1B6ED8901A361B2E6E
:10035800FCD71A505212CCAA04D0000E356E000EEB
:1003680003D0000E356E800E346E34505712CCB860
:1003780003D01A6A1A2A01D01A6A1A38F00B5212D4
:10038800CBBA03D01A6A1A2A01D01A6AD8901A343A
:100398005112CCB203D01A6A1A2A01D01A6A050E71
:1003A8001B6ED8901A361B2EFCD71A505212CCA2AC
:1003B80004D0000E376E000E03D0000E376E800E8C
:1003C800366E36505812CCBC03D01A6A1A2A01D09D
:1003D8001A6AD8901A36D8901A36D8901A34521207
:1003E800CCBE03D01A6A1A2A01D01A6AD8901A36D3
:1003F800D8901A345212CBB202D0010E01D0000E9E
:100408005212CBB003D01A6A1A2A01D01A6AD890AD
:100418001A3452121200156E31D115502AD11550C6
:10042800080D6F00CCFF0DF06F00D0FF0EF00B50E1
:100438000D24056E000E0E20066E000E086E1C0EB2
:10044800076E45EC11F014D01550050D6F00CCFF68
:100458000DF06F00D0FF0EF00B500D24056E000E4E
:100468000E20066E000E086E2A0E076E45EC11F07F
:1004780006C005F0066A05BE066805C011F006C08C
:1004880012F027D01550030D6F00CCFF0DF06F0050
:10049800D0FF0EF00B50B4D01550020D6F00CCFFFA
:1004A8000DF06F00D0FF0EF015C00FF0D8900F328E
:1004B8000F500D26000E0E220B500D24056E000E57
:1004C8000E20066E000E086E490E076E45EC11F000
:1004D800CFD7000E12BEFF0E136E146E05D1155045
:1004E800020D6F00CCFF0DF06F00D0FF0EF00B5027
:1004F8000D24056E000E0E20066E000E086E550EB9
:10050800076E45EC11F0B4D715C00DF0D8900D3238
:100518000D5015C00EF00F6A0E26000E0F220B505C
:100528000E24056E000E0F20066E000E086E660E75
:10053800076E45EC11F09CD70B5015C00DF00E6AF4
:100548000D26000E0E220E340E30106E0D300F6E7A
:100558000FC011F010C012F0BCD70BC00DF0D8902E
:100568000D320D500BC00EF00F6A0E26000E0F2232
:1005780015500E24056E000E0F20066E000E086E34
:10058800660E076E45EC11F073D70B50020D6F0025
:10059800CCFF0DF06F00D0FF0EF015500D24056E46
:1005A800000E0E20066E000E086E550E076E45EC06
:1005B80011F05ED70B50020D6F00CCFF0DF06F00ED
:1005C800D0FF0EF00BC00FF0D8900F320F500D2651
:1005D800000E0E2215500D24056E000E0E20066E1C
:1005E800000E086E490E076E45EC11F041D70B500E
:1005F800030D6F00CCFF0DF06F00D0FF0EF015500B
:100608000D26000E0E220E340E320D320E340E322E
:100618000D320DC011F00EC012F05BD70B50050D56
:100628006F00CCFF0DF06F00D0FF0EF015500D24B9
:10063800056E000E0E20066E000E086E2A0E076E5E
:1006480045EC11F015D70B50080D6F00CCFF0DF0DD
:100658006F00D0FF0EF015500D24056E000E0E2011
:10066800066E000E086E1C0E076E45EC11F000D7E2
:100678000B50116E126A136A146A36D00C500D6E44
:100688000E6A0E50000AD8A4C8D60D50000AD8B475
:10069800C4D6010AD8B4C3D6030AD8B4D5D6010A39
:1006A800D8B4F0D6070AD8B4F7D6010AD8B417D701
:1006B800030AD8B429D7010AD8B43ED70F0AD8B448
:1006C8004CD7010AD8B461D7030AD8B473D7010A42
:1006D800D8B48DD7070AD8B4A1D7010AD8B4B3D7EC
:1006E800030AD8B4C5D799D600F01150120083EC8C
:1006F80011F0D6EC10F00FEC12F0000E3E01F16F85
:10070800F88F21EC10F0000E0801326F000E336FE5
:100718002B45010B3313CCAACCB806D03341800B40
:100728002B6F16EC11F02CD0CCAACBBA05D03351D4
:10073800800DF350020FF4D7CCA8CCB204D03351BB
:10074800800DF328EDD7CCA2CBBA05D03351800D5C
:10075800F350030FE5D7CABE05D03351800DF350CF
:10076800040FDED7CCB00CD03351D8A402D0010E80
:1007780001D0000E336F2B9F3341800B2B13D1D741
:10078800CAA8CCB605D04FEC0FF016EC11F034D057
:10079800CCB609D008012C51D8A402D0010E01D042
:1007A800000E2C6FF2D7CAB827D0010E0801326F9D
:1007B800620E396E670E386ECE0EE82EFED7382ED2
:1007C800FCD7392EFAD799EC0BF016D0CCB60AD054
:1007D8004AEC0EF016EC11F021EC10F0000E0801B6
:1007E800326F0ED0BBEC0AF0150E386EC60EE82E2E
:1007F800FED7382EFCD700D008013205D8B4E6D78A
:10080800150E386EC60EE82EFED7382EFCD700D04F
:1008180008012B9FD28E948E3CD0CDEC04F0470477
:10082800D8A403D0FAD70FEC00F0090E4D6003D01E
:10083800020E4760F8D7190E4D18D8A414D0400EF0
:100848004918D8A410D0D29E3F011F9F4BEC07F047
:10085800000E4D6E000E496E3F01208D010E476E51
:10086800D28E1F8F0AD0080E4D6407D049BC05D020
:10087800000E476E000E486E88D04804D8A408D0F1
:1008880008012C51D8B404D0CB88F00E7D6E01D06D
:10089800CB984750D8B479D0C2D7090E4D18D8A4F0
:1008A80013D0410E4918D8A40FD0D29E3F011F9FE4
:1008B80073EC08F02CD0000E496E2CD0000E476E59
:1008C8002DD03F011F8F61D0190E4D18D8A406D026
:1008D800D29E3F011F9F73EC08F019D0090E4D18E6
:1008E800D8A409D04950D8A406D0D29E3F011F9F52
:1008F80097EC09F00CD0090E4D18D8A411D049284E
:10090800D8A40ED0D29E3F011F9F97EC09F0000E8D
:100918004D6ED1D73F01208D00F0D0D7D28ED1D7E0
:10092800190E4D18D8A413D0400E4918D8A40FD0CA
:10093800D29E3F011F9F4BEC07F0000E4D6E000E3C
:10094800496E010E476ED28E3F011F8FA2D7090E46
:100958004D641BD049BC19D03901A19F3F01208F9C
:10096800208D00F03901918F949E000E4D6E000E7F
:10097800496E000E476E000E486E000E466E5AEC29
:1009880011F0D28E3F011F8F948E4750D8A481D783
:1009980084D708013551D8A411D03B0E3E01F16F20
:1009A800F881F8B1FED7020EF16FF881000E080148
:1009B800346F000E366F010E356F12003E01F8B12C
:1009C800120008013651D8A413D02DD0030E03D03D
:1009D800000E01D0010E3E01F16F1ED0B2EC0DF0F9
:1009E800020E476E000E0801356F000E366F1200BA
:1009F8003451186E196A1950000AD8A40DD018502D
:100A0800000AD8B4E3D7010AD8B4E2D7030AD8B4A5
:100A1800E1D7010AD8B4E2D70801342B000E366FAB
:100A28003E01F8811200010E366F3E01EF516F0052
:100A3800C0FB18F0196A18C019F0186A1826000EB9
:100A48001922D89019321832D89019321832D89001
:100A58001932183218C01AF019C01BF01AC037F82A
:100A68001BC038F83B0EF16FF88154D007C839F82D
:100A780008C83AF803C83BF804C83CF805C83DF86C
:100A880006C83EF81BC83FF81CC840F81DC841F806
:100A98001EC842F854D00DC839F80EC83AF809C82B
:100AA8003BF80AC83CF80BC83DF80CC83EF81FC80C
:100AB8003FF820C840F821C841F822C842F83FD082
:100AC80013C839F814C83AF80FC83BF810C83CF8EE
:100AD80011C83DF812C83EF823C83FF824C840F8AA
:100AE80025C841F826C842F82AD019C839F81AC8C2
:100AF8003AF815C83BF816C83CF817C83DF818C8A6
:100B08003EF827C83FF828C840F829C841F82AC83D
:100B180042F815D008013451186E196A1950000AA4
:100B2800D8A40DD01850000AD8B4A0D7010AD8B458
:100B3800B2D7030AD8B4C4D7010AD8B4D6D72F512C
:100B48003D25186E000E3E21196E3751185C38513C
:100B58001958D8B027D02F513D27000E3E233D0706
:100B6800D8A03E073951375D3A513859D8A007D037
:100B78003451530FD96EDA6AE40EDF6E1200345125
:100B8800530FD96EDA6A3D51375D0B6E3E513859B5
:100B98000C6E3FC80DF040C80EF096EC11F0810FB6
:100BA800DF6E12002F513D5D186E000E3E59196E12
:100BB8001850375D19503859D8B029D02F513D5F9A
:100BC800000E3E5B3D07D8A03E0737513B5D3851CC
:100BD8003C59D8A007D03451530FD96EDA6A1C0E8D
:100BE800DF6E12003451530FD96EDA6A37513D5D0A
:100BF8000B6E38513E590C6E41C80DF042C80EF0CC
:100C080096EC11F0186E18507F08DF6E1200345100
:100C1800530FD96EDA6A7F0EDF6E1200EAD0000E2B
:100C280012000B501200D8900C300F6E0B300E6E65
:100C38000E5012000BC005F00CC006F0000E086E36
:100C4800550E076E45EC11F005C011F006C012F004
:100C5800136A146A125012000BC00EF00CC00FF089
:100C6800D8900F320E32D8900F320E320E5012003A
:100C78000BC005F00CC006F0000E086E330E076EB0
:100C880045EC11F0E1D70BC005F00CC006F0000EE2
:100C9800086E2B0E076E45EC11F0D6D70BC005F089
:100CA8000CC006F0000E086E250E076E45EC11F01C
:100CB800CBD70BC00EF00CC00FF0D8900F320E320D
:100CC800D8900F320E32D8900F320E320E501200DA
:100CD8000BC005F00CC006F0000E086E1C0E076E67
:100CE80045EC11F0B1D70BC005F00CC006F0000EB2
:100CF800086E190E076E45EC11F0A6D70BC005F06B
:100D08000CC006F0000E086E170E076E45EC11F0C9
:100D18009BD70BC005F00CC006F0000E086E150E30
:100D2800076E45EC11F090D70BC005F00CC006F02B
:100D3800000E086E140E076E45EC11F085D70BC037
:100D480005F00CC006F0000E086E120E076E45EC9A
:100D580011F07AD70BC005F00CC006F0000E086E33
:100D6800110E076E45EC11F06FD70BC00EF00CC0DA
:100D78000FF0040E106ED8900F320E32102EFBD7E3
:100D88000E5012000BC005F00CC006F0000E086EE5
:100D98000F0E076E45EC11F057D70BC005F00CC0CD
:100DA80006F0000E086E0E0E076E45EC11F04CD7DB
:100DB8000BC005F00CC006F0000E086E0D0E076E95
:100DC80045EC11F041D70BC005F00CC006F0000E41
:100DD800086E0C0E076E45EC11F036D70BC005F007
:100DE8000CC006F0000E086E0B0E076E45EC11F0F5
:100DF8002BD70D500E6E0F6A0F50000AD8A411D7CA
:100E08000E50000AD8B40BD7010AD8B40AD7030A7F
:100E1800D8B409D7010AD8B40DD7070AD8B41CD753
:100E2800010AD8B425D7030AD8B42DD7010AD8B4F3
:100E380035D70F0AD8B43DD7010AD8B449D7030A21
:100E4800D8B451D7010AD8B459D7070AD8B461D74A
:100E5800010AD8B469D7030AD8B471D7010AD8B43B
:100E680079D71F0AD8B481D7010AD8B48BD7030A17
:100E7800D8B493D7010AD8B49BD7070AD8B498D75F
:100E8800010AD8B4A0D7030AD8B4A8D7CAD6000193
:100E9800510EE96E080E4F6F3F01D29F000000010E
:100EA800000000000000000000000000000000003A
:100EB800C3946F00BCFF50F05F6B5F87CB9450AF5B
:100EC800A1EF07F05F4F11EF08F0000000000000ED
:100ED800000000000000000000000000000000000A
:100EE800CB840000000000000000000000000000AB
:100EF80000000000000000000000000000000000EA
:100F080000000000000000000000000000000000D9
:100F180000000000000000000000000000000000C9
:100F280000000000000000000000000000000000B9
:100F3800000000000000DFEF07F05F4F41EF08F00E
:100F48000000000000000000000000000000000099
:100F58000000000000000000000000000000000089
:100F68000000000000000000000000000000000079
:100F78000000000000000000000000000000000069
:100F88000000000000000000000000000000000059
:100F98000000000000000000CB84000000000000FA
:100FA8000000000000000000000000000000000039
:100FB800000000000000503762EF07F0E92A4F2FC9
:100FC8005DEF07F00000000000000000CB94000077
:100FD8000000000000000000000000000000000009
:100FE80000000000000000000000000000000000F9
:100FF80000000000000000000000000000000000E9
:1010080000000000000000000000000000000000D8
:10101800CB843F01D28FC38412000000000000007F
:101028000000000000000000000000000000CB8469
:1010380000000000000000000000000000000000A8
:101048000000000000000000000000000000000098
:101058000000000000000000000000000000000088
:101068000000000000000000000000000000000078
:10107800000000000000E2EF07F0000000000000A0
:101088000000000000000000000000000000000058
:101098000000000000000000000000000000000048
:1010A8000000000000000000000000000000000038
:1010B8000000000000000000000000000000000028
:1010C8000000000000000000000000000000CB84C9
:1010D8000000000000000000E2EF07F0120000012D
:1010E800800EE96E0A0E4F6F3F01D29F000000018B
:1010F80000000000000000000000000000000000E8
:10110800C3946F00BCFF50F05F6B5F87CB9450AF08
:10111800C7EF08F05F4F37EF09F00000000000004C
:10112800000000000000000000000000CB84000068
:1011380000000000000000000000000000000000A7
:101148000000000000000000000000000000000097
:101158000000000000000000000000000000000087
:101168000000000000000000000000000000000077
:101178000000000000000000000000000000000067
:101188000000FFEF08F05F4F67EF09F00000000074
:101198000000000000000000000000000000000047
:1011A8000000000000000000000000000000000037
:1011B8000000000000000000000000000000000027
:1011C8000000000000000000000000000000000017
:1011D8000000000000000000000000000000CB84B8
:1011E80000000000000000000000000000000000F7
:1011F80000000000000050378AEF08F0E92A4F2F5E
:1012080085EF08F00000000000000000000000006A
:101218000000000000000000CB9400000000000067
:1012280000000000000000000000000000000000B6
:1012380000000000000000000000000000000000A6
:101248000000000000000000000000000000000096
:10125800000000000000000000000000CB843F01F7
:10126800D28FC384120000000000000000000000BC
:1012780000000000000000000000CB840000000017
:101288000000000000000000000000000000000056
:101298000000000000000000000000000000000046
:1012A8000000000000000000000000000000000036
:1012B8000000000000000000000000000000000026
:1012C800000002EF09F0000000000000000000002C
:1012D8000000000000000000000000000000000006
:1012E80000000000000000000000000000000000F6
:1012F80000000000000000000000000000000000E6
:1013080000000000000000000000000000000000D5
:1013180000000000000000000000CB840000000076
:1013280002EF09F012000001590EE96E030E4F6F2B
:101338003F01D29F000000010000000000000000F3
:101348000000000000000000C3946F00BCFF50F0D4
:101358005F6B5F87CB9450AFEBEF09F05F4F5BEFAC
:101368000AF000000000000000000000000000007B
:1013780000000000CB840000000000000000000016
:101388000000000000000000000000000000000055
:101398000000000000000000000000000000000045
:1013A8000000000000000000000000000000000035
:1013B8000000000000000000000000000000000025
:1013C8000000000000000000000023EF0AF05F4F5B
:1013D8008BEF0AF000000000000000000000000091
:1013E80000000000000000000000000000000000F5
:1013F80000000000000000000000000000000000E5
:1014080000000000000000000000000000000000D4
:1014180000000000000000000000000000000000C4
:10142800000000000000CB84000000000000000065
:10143800000000000000000000000000000050371D
:10144800AEEF09F0E92A4F2FA9EF09F000000000DC
:101458000000000000000000000000000000000084
:10146800CB94000000000000000000000000000015
:101478000000000000000000000000000000000064
:101488000000000000000000000000000000000054
:101498000000000000000000000000000000000044
:1014A80000000000CB843F01D28FC38412000000EB
:1014B8000000000000000000000000000000000024
:1014C8000000CB84000000000000000000000000C5
:1014D8000000000000000000000000000000000004
:1014E80000000000000000000000000000000000F4
:1014F80000000000000000000000000000000000E4
:101508000000000000000000000026EF0AF00000C4
:1015180000000000000000000000000000000000C3
:1015280000000000000000000000000000000000B3
:1015380000000000000000000000000000000000A3
:101548000000000000000000000000000000000093
:101558000000000000000000000000000000000083
:101568000000CB840000000026EF0AF012000801FA
:101578003551D8A411D03B0E3E01F16FF881F8B176
:10158800FED7020EF16FF881000E0801346F000ECD
:10159800366F010E356F12003E01F8B112000801D6
:1015A8003651D8A40ED028D0030E03D0000E01D097
:1015B800010E3E01F16F19D0000E356F000E366F27
:1015C80012003451056E066A0650000AD8A40DD0E0
:1015D8000550000AD8B4E8D7010AD8B4E7D7030AF7
:1015E800D8B4E6D7010AD8B4E7D70801342B000EDF
:1015F800366F3E01F8811200010E366F3E01EF5141
:101608006F00C0FB05F0066A05C006F0056A0526EE
:10161800000E0622D89006320532D89006320532DE
:10162800D8900632053205C037F806C038F83B0EA8
:10163800F16FF88164D03751075D38510859D8B037
:1016480004D037C807F838C808F80351375D045183
:101658003859D8B004D037C803F838C804F837C8A0
:1016680005F838C806F8120037510D5D38510E5983
:10167800D8B004D037C80DF838C80EF80951375D0E
:101688000A513859D8B004D037C809F838C80AF808
:1016980037C80BF838C80CF812003751135D3851A9
:1016A8001459D8B004D037C813F838C814F80F51F3
:1016B800375D10513859D8B004D037C80FF838C83A
:1016C80010F837C811F838C812F812003751195DE8
:1016D80038511A59D8B004D037C819F838C81AF888
:1016E8001551375D16513859D8B004D037C815F898
:1016F80038C816F837C817F838C818F8120008019B
:101708003451056E066A0650000AD8A41200055026
:10171800000AD8B490D7010AD8B4A6D7030AD8B417
:10172800BCD7010AD8A41200D1D73B0E3E01F16FF5
:10173800F881F8B1FED7020EF16FF881F8B1FED743
:10174800EF516F00C0FB05F0066A05C006F0056A98
:101758000526000E0622D89006320532D8900632A9
:101768000532D8900632053205C007F006C008F0E9
:1017780007C007F808C008F807C003F808C004F84D
:1017880007C005F808C006F83B0EF16FF881F8B1FC
:10179800FED7030EF16FF881F8B1FED7EF516F0055
:1017A800C0FB05F0066A05C006F0056A0526000EAE
:1017B8000622D89006320532D89006320532D890E3
:1017C8000632053205C007F006C008F007C00DF85C
:1017D80008C00EF807C009F808C00AF807C00BF8D7
:1017E80008C00CF83B0EF16FF881F8B1FED7000E77
:1017F800F16FF881F8B1FED7EF516F00C0FB05F02B
:10180800066A05C006F0056A0526000E0622D8906D
:1018180006320532D89006320532D89006320532A3
:1018280005C007F006C008F007C013F808C014F890
:1018380007C00FF808C010F807C011F808C012F860
:101848003B0EF16FF881F8B1FED7010EF16FF88108
:10185800F8B1FED7EF516F00C0FB05F0066A05C06E
:1018680006F0056A0526000E0622D89006320532D3
:10187800D89006320532D8900632053205C007F0F6
:1018880006C008F007C019F808C01AF807C015F80C
:1018980008C016F807C017F808C018F81200CAB828
:1018A80021D03E50D8A41ED0CCB203D0020E3E6E3A
:1018B8001200CBBA03D0030E3E6E1200CCBA03D08E
:1018C800050E3E6E1200CCB803D0040E3E6E120018
:1018D800CCBC03D0070E3E6E1200CCBE1200060E22
:1018E8003E6E12003E50D8B41200CCA20ED0020EAA
:1018F8003E18D8A40AD008012D2B0E0E2D6502D053
:101908000E0E2D6F080E3E6E1200CBAA0CD0030EE1
:101918003E18D8A408D008012D51D8A402D0000E32
:10192800F0D72D07EFD7CCA80BD0040E3E18D8A4BB
:1019380007D008012E2B0E0E2E65E4D70E0E0BD005
:10194800CCAA0DD0050E3E18D8A409D008012E51F6
:10195800D8A403D0000E2E6FD5D72E07D3D7CCAC82
:101968000CD0070E3E18D8A408D0040E08012F2763
:101978001B0E2F65C7D71C0E10D0CCAE10D0060E8C
:101988003E18D8A40CD0040E08012F5F2F51D8B4EC
:1019980003D01C0E2F65B6D7000E2F6FB3D7080ED5
:1019A8003E18D8A41200D29E3F011F9F4AEC0EF0A9
:1019B80016EC11F00A0E196E580EE82EFED7192EE5
:1019C800FCD700D021EC10F00A0E196E580EE82E44
:1019D800FED7192EFCD700D0000E3E6E3901A19F0C
:1019E8003F01208F208D00F03901918F949E000EC9
:1019F8004D6E000E496E000E476E000E486E000ECA
:101A0800466E5AEC11F0D28E3F011F8F948E120051
:101A180005C00FF006C010F009500A10D8B4120023
:101A280060003FF0D9FF600043F0DAFF60001FF06C
:101A3800DFFF09500F240B6E0A5010200C6EFF0EAA
:101A48000B24D96EFF0E0C20DA6E60001FF0DFFF4A
:101A58000A5004E1030E095CD8A0120020EE01F040
:101A68000F50D9261050DA2260001FF0DFFF20EE59
:101A780002F00F50D9261050DA2260001FF0DFFF65
:101A880009500F240B6E0A5010200C6EFE0E0B240A
:101A9800D96EFF0E0C20DA6E60001FF0DFFF0950D0
:101AA8000F240B6E0A5010200C6EFD0E0B24D96EFD
:101AB800FF0E0C20DA6E60001FF0DFFF0A5004E111
:101AC800070E095CD8A0120020EE03F00F50D926AB
:101AD8001050DA2260001FF0DFFF09500F240B6E50
:101AE8000A5010200C6EFC0E0B24D96EFF0E0C2031
:101AF800DA6E60001FF0DFFF0A5004E1090E095C8E
:101B0800D8A012000FC00BF010C00CF00B1E0C1E5A
:101B18000B4A0C2A030E0B140D6E0E6A0D500F267D
:101B28000E5010220D50095E0E500A5AFC0E09166E
:101B3800FF0E0A160ED060003FF0D9FF600043F098
:101B4800DAFF60001FF0DFFF0906D8A00A060F4A77
:101B5800102A09500A10D8B41200EDD74350D8A45F
:101B680030D05350100D6F00CCFF3CF06F00D0FF09
:101B78003DF05450100D6F00CCFF3AF06F00D0FFCD
:101B88003BF0000E446E0F0E5D6E010E436E53C0A7
:101B980042F054C041F0000E176E0FD01750700F6E
:101BA800D96EDA6A60004FF1DFFF1750600FD96E07
:101BB800DA6A600053F1DFFF172A0F0E1764EED7B9
:101BC80012004450700FD96EDA6ADF50166E165044
:101BD8003C5E000E3D5A4450600FD96EDA6ADF5001
:101BE800166E16503A5E000E3B5A5D2A0F0E5D6463
:101BF80002D0000E5D6E53503C26000E3D225D5013
:101C0800700FD96EDA6A60004FF1DFFF54503A2640
:101C1800000E3B225D50600FD96EDA6A600053F106
:101C2800DFFF442A0F0E446402D0000E446E3CC00D
:101C38000BF03DC00CF0100E0D6E12EC06F0426E6B
:101C48003AC00BF03BC00CF0100E0D6E12EC06F013
:101C5800416E810E536003D07E0E536008D042C09F
:101C68000BF02DC80CF053500FEC02F0536E810EA0
:101C7800546003D07E0E5460120041C00BF02EC891
:101C88000CF054500FEC02F0546E120007C80CF020
:101C980008C80DF008012F5105250E6E000E06210B
:101CA8000F6E83EC10F00CC01BF80DC01CF8080177
:101CB8002F51055D0C6E0651D8A006050D6E03C8A0
:101CC8000EF004C80FF083EC10F00CC01DF80DC026
:101CD8001EF813C80CF014C80DF008012F51112577
:101CE8000E6E000E12210F6E83EC10F00CC023F85C
:101CF8000DC024F808012F51115D0C6E1251D8A0A7
:101D080012050D6E0FC80EF010C80FF083EC10F01E
:101D18000CC025F80DC026F80DC80CF00EC80DF043
:101D280008012F510B250E6E000E0C210F6E83EC4F
:101D380010F00CC01FF80DC020F808012F510B5DE2
:101D48000C6E0C51D8A00C050D6E09C80EF00AC80F
:101D58000FF083EC10F00CC021F80DC022F819C860
:101D68000CF01AC80DF008012F5117250E6E000E41
:101D780018210F6E83EC10F00CC027F80DC028F85E
:101D880008012F51175D0C6E1851D8A018050D6E5B
:101D980015C80EF016C80FF083EC10F00CC029F827
:101DA8000DC02AF812006F0060FC45F0390191BFA0
:101DB800A1AF58D0A19F000E926E4650D8B452D011
:101DC800000127D0494745515E61498148D0489173
:101DD80045515E61488143D000F03F011F9F3901A2
:101DE800A19F3F01208F208D00F03901918F949E93
:101DF800000E4D6E000E496E000E476E000E486EC6
:101E0800000E466E6FEC11F0D28E3F011F8F948E3C
:101E180026D04D50036E046A0450000AD8A41FD07F
:101E28000350000AD8B4CED7010AD8B4CBD7030AD6
:101E3800D8B4C8D7010AD8B4C5D7070AD8B4C2D706
:101E4800010AD8B4BFD7030AD8B4BCD7010AD8B49A
:101E5800B9D7100AD8B4BBD70D0AD8B4BDD700017A
:101E68004D2B00F0390199A31100A9A31100A993E2
:101E78004650D8A411003F011F9F00F03901A19FCF
:101E88003F01208F208D00F0010E466E3901999395
:101E98003F011F8F1100000E0801016F000E006F37
:101EA8004B0E026F000E046F5E0E036F000E066F7E
:101EB800FE0E056F010E086F7E0E076F000E0A6F8B
:101EC8007C0E096F000E0C6F0B69010E0E6F9F0ED2
:101ED8000D6F000E106F6C0E0F6F000E126FEC0E70
:101EE800116F010E146F810E136F000E166F5F0EC7
:101EF800156F000E186FEC0E176F010E1A6F7C0E1F
:101F0800196F000E1C6FE30E1B6F000E1E6FB00ED4
:101F18001D6F000E206FA30E1F6F000E226FE30EC1
:101F2800216F000E246FC00E236F000E266FE30E84
:101F3800256F000E286FC20E276F000E2A6FCC0E79
:101F4800296F020E2D6F020E2E6F4AEC0EF0040E52
:101F580008012B6F000E2C6F040E2F6F1200EB0E72
:101F6800F66E230EF76E000EF86E00EE80F010EE9F
:101F78000AF009006F00D7FFEEFFE550E150F9E1E4
:101F8800DC0EF66E230EF76E000EF86E00EE51F0C2
:101F980010EE0FF009006F00D7FFEEFFE550E1509B
:101FA800F9E100EE60F0200EEE6AE806FDE100EED1
:101FB8003AF0170EEE6AE806FDE1080ED56E000E3F
:101FC800D66E000ED76E000EF86E00017BEF03F0A0
:101FD800F00EBA6E270EBB6EFB0EBC6EC268E70E23
:101FE800C36EC468000E3A01606F000E506F0F0E8A
:101FF800406F000E816F230E516FF00E416FFB0E84
:10200800616F000E426F000E526F000E626F4369DF
:1020180053696369446954696469080E846F579504
:1020280056855595000E056E000E066E00EC12F0F2
:10203800090E0B6F0A0ED26F1200000E056E080E05
:10204800066E000E086E000E076E000E0A6E300E49
:10205800096E0CEC0DF0000E166E080E176E000ED1
:10206800186E040018501624D96E000E1720DA6E68
:1020780018C005F0066AB9EC11F0DF6E020E1818E8
:10208800D8A40AD04B0E08010219D8B405D04FECD9
:102098000FF016EC11F01200182A2F0E1864E1D771
:1020A8001200000E3E01DE6F000EDF6F000EE06FC3
:1020B800000EE16F000EE46F000EE56F000EEA6F90
:1020C800000EEC6F000EF16F180EF36F000EF46F38
:1020D800000EF56F000EF66F000EF76F010EF96F28
:1020E800000EFA6F000EFB6F000EFC6F000EFD6F06
:1020F800000EFE6F010EFF6F840EF86F12000E5077
:102108000C5C106E0F500D58116E10C007F011C006
:1021180008F0270E066E100E056EADEC10F005C027
:1021280006F0056A05C014F006C015F014C005F0E5
:1021380015C006F0000E086E640E076EADEC10F0C8
:1021480005C012F006C013F012C00CF013C00DF059
:102158001200000E0A6E000E096E07500810D8B45F
:102168001CD0010E0B6E04D0D890073608360B2A07
:1021780008AEFAD7D89009360A360750055C0850D9
:102188000658D8A005D00750055E0850065A0980A1
:10219800D890083207320B2EEDD709C005F00AC0D7
:1021A80006F01200000E0801346F000E356F000EA5
:1021B800366F000E386F000E376F000E3A6F000E44
:1021C800396F000E3C6F000E3B6F000E3E6F000E25
:1021D8003D6F000E406F000E3F6F000E426F000E05
:1021E800416F1200000ED2BE010E086E0650030B9E
:1021F8003901E16F600017F0E0F960001FF0E3F9C2
:102208003F0EE517E585D29E550EE66FAA0EE66FDE
:10221800E583E5B3FED7E59508B002D0D29E01D09C
:10222800D28E1200000E096E080E0A6E000E0B6E9A
:102238000BC005F0066A0B500924D96E000E0A205F
:10224800DA6EDF50076EF6EC10F00B2A2F0E0B64D7
:10225800EFD71200990E3F011E6FC30E1F6F000EBD
:10226800206F010E216F0A0E236F000E226F1D6969
:102278001C691B69208F208D3901918F3F011F8FA9
:102288001200055007026F00CCFF09F06F00D0FF65
:102298000AF005500802F3500A2606500702F350C8
:1022A8000A2609C005F00AC006F01200020E966E52
:1022B800600E956E000E976E9368000E926E39014F
:1022C800A9939983000E056E000E066EFBEC11F0C3
:1022D800F00E946E1200020E966E600E956E000E51
:1022E800976E9368000E926EA9939983000E016E03
:1022F800000E026E0AEC12F0F00E946E120005EC5D
:1023080012F0A8EC11F0ECEC0FF0E2EC11F0D6ECC6
:1023180011F05AEC11F055EC10F0C8EC11F02EEC5D
:1023280011F01200010E0D24056E000E0E20066E2F
:102338000BC007F00CC008F045EC11F0065008017E
:10234800436F446B43511200000EC06F000EC16F03
:10235800000EC26F000EC36F000EC46F000EC56F73
:10236800000EC66F000EC76F12000650030B39012E
:10237800E16F600017F0E0F93F0EE517E58100F026
:1023880000F03901E3511200010EA26E000EA16E99
:10239800000EA36E9F68000E9E6E3901A895800EF0
:1023A800A06E12009C0E7E6EF00E7D6E000E7C6E8E
:1023B8003F015E51FC0B02095E6F1200600E39018D
:1023C800D96F000EDB6F000EDD6F080EDF6F000E99
:1023D800DE6F1200008080808080000009000310FA
:0D23E80016640800808080808000000202E2
:1023F60005C08AF006C08BF0120005C08CF006C03E
:102406008DF01200D28A39018983818F120001C0B2
:0E2416008AF002C08BF012005F0E5E6E1200A4
:020000040020DA
:10000000FF0FFF0FFF0FFF0FFF0FFF0FFF0FFF0F80
:020000040030CA
:0A0000008CFFF7FF9FFFFFFFFFFFDB
:00000001FF
